{
  "contractName": "eVotingSystem",
  "abi": [
    {
      "inputs": [],
      "stateMutability": "nonpayable",
      "type": "constructor"
    },
    {
      "inputs": [],
      "name": "Administrator",
      "outputs": [
        {
          "internalType": "address",
          "name": "",
          "type": "address"
        }
      ],
      "stateMutability": "view",
      "type": "function",
      "constant": true
    },
    {
      "inputs": [
        {
          "internalType": "string",
          "name": "",
          "type": "string"
        }
      ],
      "name": "CandidatesList",
      "outputs": [
        {
          "internalType": "bool",
          "name": "",
          "type": "bool"
        }
      ],
      "stateMutability": "view",
      "type": "function",
      "constant": true
    },
    {
      "inputs": [],
      "name": "NumberOfCandidates",
      "outputs": [
        {
          "internalType": "uint256",
          "name": "",
          "type": "uint256"
        }
      ],
      "stateMutability": "view",
      "type": "function",
      "constant": true
    },
    {
      "inputs": [],
      "name": "NumberOfVoters",
      "outputs": [
        {
          "internalType": "uint256",
          "name": "",
          "type": "uint256"
        }
      ],
      "stateMutability": "view",
      "type": "function",
      "constant": true
    },
    {
      "inputs": [],
      "name": "Registation_EndTime",
      "outputs": [
        {
          "internalType": "uint256",
          "name": "",
          "type": "uint256"
        }
      ],
      "stateMutability": "view",
      "type": "function",
      "constant": true
    },
    {
      "inputs": [],
      "name": "Registation_StartingTime",
      "outputs": [
        {
          "internalType": "uint256",
          "name": "",
          "type": "uint256"
        }
      ],
      "stateMutability": "view",
      "type": "function",
      "constant": true
    },
    {
      "inputs": [
        {
          "internalType": "string",
          "name": "",
          "type": "string"
        }
      ],
      "name": "VotedTime",
      "outputs": [
        {
          "internalType": "uint256",
          "name": "",
          "type": "uint256"
        }
      ],
      "stateMutability": "view",
      "type": "function",
      "constant": true
    },
    {
      "inputs": [
        {
          "internalType": "string",
          "name": "",
          "type": "string"
        }
      ],
      "name": "VotersList",
      "outputs": [
        {
          "internalType": "bool",
          "name": "",
          "type": "bool"
        }
      ],
      "stateMutability": "view",
      "type": "function",
      "constant": true
    },
    {
      "inputs": [],
      "name": "Voting_EndTime",
      "outputs": [
        {
          "internalType": "uint256",
          "name": "",
          "type": "uint256"
        }
      ],
      "stateMutability": "view",
      "type": "function",
      "constant": true
    },
    {
      "inputs": [
        {
          "internalType": "uint256",
          "name": "registation_EndTime",
          "type": "uint256"
        },
        {
          "internalType": "uint256",
          "name": "voting_EndTime",
          "type": "uint256"
        }
      ],
      "name": "SetEndTime",
      "outputs": [],
      "stateMutability": "nonpayable",
      "type": "function"
    },
    {
      "inputs": [
        {
          "internalType": "string",
          "name": "_adharNo",
          "type": "string"
        }
      ],
      "name": "AddVoters",
      "outputs": [],
      "stateMutability": "nonpayable",
      "type": "function"
    },
    {
      "inputs": [],
      "name": "getVoters",
      "outputs": [
        {
          "components": [
            {
              "internalType": "string",
              "name": "adharNo",
              "type": "string"
            },
            {
              "internalType": "uint256",
              "name": "voteddAt",
              "type": "uint256"
            }
          ],
          "internalType": "struct eVotingSystem.Voter[]",
          "name": "",
          "type": "tuple[]"
        }
      ],
      "stateMutability": "view",
      "type": "function",
      "constant": true
    },
    {
      "inputs": [
        {
          "internalType": "string",
          "name": "_adharNo",
          "type": "string"
        }
      ],
      "name": "AddCandidates",
      "outputs": [],
      "stateMutability": "nonpayable",
      "type": "function"
    },
    {
      "inputs": [],
      "name": "getCandidates",
      "outputs": [
        {
          "components": [
            {
              "internalType": "uint256",
              "name": "seqNo",
              "type": "uint256"
            },
            {
              "internalType": "string",
              "name": "adharNo",
              "type": "string"
            },
            {
              "internalType": "uint256",
              "name": "voteCount",
              "type": "uint256"
            },
            {
              "internalType": "uint256",
              "name": "registeredAt",
              "type": "uint256"
            }
          ],
          "internalType": "struct eVotingSystem.Candidate[]",
          "name": "",
          "type": "tuple[]"
        }
      ],
      "stateMutability": "view",
      "type": "function",
      "constant": true
    },
    {
      "inputs": [
        {
          "internalType": "string",
          "name": "_adharNo",
          "type": "string"
        },
        {
          "internalType": "uint256",
          "name": "_candidateNo",
          "type": "uint256"
        }
      ],
      "name": "giveVote",
      "outputs": [],
      "stateMutability": "nonpayable",
      "type": "function"
    }
  ],
  "bytecode": "0x608060405260006007556000600a5534801561001a57600080fd5b50336000806101000a81548173ffffffffffffffffffffffffffffffffffffffff021916908373ffffffffffffffffffffffffffffffffffffffff16021790555042600181905550611c5d806100716000396000f3fe608060405234801561001057600080fd5b50600436106100f55760003560e01c80638649c0a411610097578063cdd7225311610066578063cdd7225314610274578063e92b7f4b14610292578063ea5938d3146102ae578063ef8d1b6b146102cc576100f5565b80638649c0a4146102005780638705127e1461021c578063925cdf101461023a578063ac31afbc14610256576100f5565b806337836c8d116100d357806337836c8d14610166578063659a0af1146101845780637903420e146101a05780637d709b36146101d0576100f5565b806306a49fce146100fa578063241e6358146101185780632917506414610136575b600080fd5b6101026102ea565b60405161010f9190611060565b60405180910390f35b6101206104ee565b60405161012d91906110c3565b60405180910390f35b610150600480360381019061014b9190611227565b610512565b60405161015d919061128b565b60405180910390f35b61016e610548565b60405161017b91906112b5565b60405180910390f35b61019e60048036038101906101999190611227565b61054e565b005b6101ba60048036038101906101b59190611227565b610729565b6040516101c7919061128b565b60405180910390f35b6101ea60048036038101906101e59190611227565b61075f565b6040516101f791906112b5565b60405180910390f35b61021a600480360381019061021591906112fc565b61078d565b005b61022461082d565b60405161023191906112b5565b60405180910390f35b610254600480360381019061024f919061133c565b610833565b005b61025e610a91565b60405161026b91906112b5565b60405180910390f35b61027c610a97565b6040516102899190611497565b60405180910390f35b6102ac60048036038101906102a79190611227565b610c87565b005b6102b6610e44565b6040516102c391906112b5565b60405180910390f35b6102d4610e4a565b6040516102e191906112b5565b60405180910390f35b606060008054906101000a900473ffffffffffffffffffffffffffffffffffffffff1673ffffffffffffffffffffffffffffffffffffffff163373ffffffffffffffffffffffffffffffffffffffff161461037a576040517f08c379a000000000000000000000000000000000000000000000000000000000815260040161037190611516565b60405180910390fd5b6000600a5467ffffffffffffffff811115610398576103976110fc565b5b6040519080825280602002602001820160405280156103d157816020015b6103be610e50565b8152602001906001900390816103b65790505b50905060005b600a548110156104e6576000600860008381526020019081526020016000209050806040518060800160405290816000820154815260200160018201805461041e90611565565b80601f016020809104026020016040519081016040528092919081815260200182805461044a90611565565b80156104975780601f1061046c57610100808354040283529160200191610497565b820191906000526020600020905b81548152906001019060200180831161047a57829003601f168201915b50505050508152602001600282015481526020016003820154815250508383815181106104c7576104c6611596565b5b60200260200101819052505080806104de906115f4565b9150506103d7565b508091505090565b60008054906101000a900473ffffffffffffffffffffffffffffffffffffffff1681565b6009818051602081018201805184825260208301602085012081835280955050505050506000915054906101000a900460ff1681565b600a5481565b60008054906101000a900473ffffffffffffffffffffffffffffffffffffffff1673ffffffffffffffffffffffffffffffffffffffff163373ffffffffffffffffffffffffffffffffffffffff16146105dc576040517f08c379a00000000000000000000000000000000000000000000000000000000081526004016105d390611516565b60405180910390fd5b426002541015610621576040517f08c379a000000000000000000000000000000000000000000000000000000000815260040161061890611688565b60405180910390fd5b60098160405161063191906116e4565b908152602001604051809103902060009054906101000a900460ff161561068d576040517f08c379a000000000000000000000000000000000000000000000000000000000815260040161068490611747565b60405180910390fd5b600060086000600a548152602001908152602001600020905060008160020181905550818160010190816106c19190611913565b50428160030181905550600a54816000018190555060016009836040516106e891906116e4565b908152602001604051809103902060006101000a81548160ff021916908315150217905550600a6000815480929190610720906115f4565b91905055505050565b6006818051602081018201805184825260208301602085012081835280955050505050506000915054906101000a900460ff1681565b6005818051602081018201805184825260208301602085012081835280955050505050506000915090505481565b60008054906101000a900473ffffffffffffffffffffffffffffffffffffffff1673ffffffffffffffffffffffffffffffffffffffff163373ffffffffffffffffffffffffffffffffffffffff161461081b576040517f08c379a000000000000000000000000000000000000000000000000000000000815260040161081290611516565b60405180910390fd5b81600281905550806003819055505050565b60035481565b60008054906101000a900473ffffffffffffffffffffffffffffffffffffffff1673ffffffffffffffffffffffffffffffffffffffff163373ffffffffffffffffffffffffffffffffffffffff16146108c1576040517f08c379a00000000000000000000000000000000000000000000000000000000081526004016108b890611516565b60405180910390fd5b426002541115610906576040517f08c379a00000000000000000000000000000000000000000000000000000000081526004016108fd90611a31565b60405180910390fd5b42600354101561094b576040517f08c379a000000000000000000000000000000000000000000000000000000000815260040161094290611a9d565b60405180910390fd5b60068260405161095b91906116e4565b908152602001604051809103902060009054906101000a900460ff166109b6576040517f08c379a00000000000000000000000000000000000000000000000000000000081526004016109ad90611b2f565b60405180910390fd5b806000111580156109c85750600a5481105b610a07576040517f08c379a00000000000000000000000000000000000000000000000000000000081526004016109fe90611b9b565b60405180910390fd5b600860008281526020019081526020016000206002016000815480929190610a2e906115f4565b919050555042600583604051610a4491906116e4565b9081526020016040518091039020819055506000600683604051610a6891906116e4565b908152602001604051809103902060006101000a81548160ff0219169083151502179055505050565b60015481565b606060008054906101000a900473ffffffffffffffffffffffffffffffffffffffff1673ffffffffffffffffffffffffffffffffffffffff163373ffffffffffffffffffffffffffffffffffffffff1614610b27576040517f08c379a0000000000000000000000000000000000000000000000000000000008152600401610b1e90611516565b60405180910390fd5b600060075467ffffffffffffffff811115610b4557610b446110fc565b5b604051908082528060200260200182016040528015610b7e57816020015b610b6b610e78565b815260200190600190039081610b635790505b50905060005b600754811015610c7f57600060046000838152602001908152602001600020905080604051806040016040529081600082018054610bc190611565565b80601f0160208091040260200160405190810160405280929190818152602001828054610bed90611565565b8015610c3a5780601f10610c0f57610100808354040283529160200191610c3a565b820191906000526020600020905b815481529060010190602001808311610c1d57829003601f168201915b50505050508152602001600182015481525050838381518110610c6057610c5f611596565b5b6020026020010181905250508080610c77906115f4565b915050610b84565b508091505090565b60008054906101000a900473ffffffffffffffffffffffffffffffffffffffff1673ffffffffffffffffffffffffffffffffffffffff163373ffffffffffffffffffffffffffffffffffffffff1614610d15576040517f08c379a0000000000000000000000000000000000000000000000000000000008152600401610d0c90611516565b60405180910390fd5b426002541015610d5a576040517f08c379a0000000000000000000000000000000000000000000000000000000008152600401610d5190611688565b60405180910390fd5b600681604051610d6a91906116e4565b908152602001604051809103902060009054906101000a900460ff1615610dc6576040517f08c379a0000000000000000000000000000000000000000000000000000000008152600401610dbd90611c07565b60405180910390fd5b6000600460006007548152602001908152602001600020905081816000019081610df09190611913565b506001600683604051610e0391906116e4565b908152602001604051809103902060006101000a81548160ff02191690831515021790555060076000815480929190610e3b906115f4565b91905055505050565b60075481565b60025481565b6040518060800160405280600081526020016060815260200160008152602001600081525090565b604051806040016040528060608152602001600081525090565b600081519050919050565b600082825260208201905092915050565b6000819050602082019050919050565b6000819050919050565b610ed181610ebe565b82525050565b600081519050919050565b600082825260208201905092915050565b60005b83811015610f11578082015181840152602081019050610ef6565b60008484015250505050565b6000601f19601f8301169050919050565b6000610f3982610ed7565b610f438185610ee2565b9350610f53818560208601610ef3565b610f5c81610f1d565b840191505092915050565b6000608083016000830151610f7f6000860182610ec8565b5060208301518482036020860152610f978282610f2e565b9150506040830151610fac6040860182610ec8565b506060830151610fbf6060860182610ec8565b508091505092915050565b6000610fd68383610f67565b905092915050565b6000602082019050919050565b6000610ff682610e92565b6110008185610e9d565b93508360208202850161101285610eae565b8060005b8581101561104e578484038952815161102f8582610fca565b945061103a83610fde565b925060208a01995050600181019050611016565b50829750879550505050505092915050565b6000602082019050818103600083015261107a8184610feb565b905092915050565b600073ffffffffffffffffffffffffffffffffffffffff82169050919050565b60006110ad82611082565b9050919050565b6110bd816110a2565b82525050565b60006020820190506110d860008301846110b4565b92915050565b6000604051905090565b600080fd5b600080fd5b600080fd5b600080fd5b7f4e487b7100000000000000000000000000000000000000000000000000000000600052604160045260246000fd5b61113482610f1d565b810181811067ffffffffffffffff82111715611153576111526110fc565b5b80604052505050565b60006111666110de565b9050611172828261112b565b919050565b600067ffffffffffffffff821115611192576111916110fc565b5b61119b82610f1d565b9050602081019050919050565b82818337600083830152505050565b60006111ca6111c584611177565b61115c565b9050828152602081018484840111156111e6576111e56110f7565b5b6111f18482856111a8565b509392505050565b600082601f83011261120e5761120d6110f2565b5b813561121e8482602086016111b7565b91505092915050565b60006020828403121561123d5761123c6110e8565b5b600082013567ffffffffffffffff81111561125b5761125a6110ed565b5b611267848285016111f9565b91505092915050565b60008115159050919050565b61128581611270565b82525050565b60006020820190506112a0600083018461127c565b92915050565b6112af81610ebe565b82525050565b60006020820190506112ca60008301846112a6565b92915050565b6112d981610ebe565b81146112e457600080fd5b50565b6000813590506112f6816112d0565b92915050565b60008060408385031215611313576113126110e8565b5b6000611321858286016112e7565b9250506020611332858286016112e7565b9150509250929050565b60008060408385031215611353576113526110e8565b5b600083013567ffffffffffffffff811115611371576113706110ed565b5b61137d858286016111f9565b925050602061138e858286016112e7565b9150509250929050565b600081519050919050565b600082825260208201905092915050565b6000819050602082019050919050565b600060408301600083015184820360008601526113e18282610f2e565b91505060208301516113f66020860182610ec8565b508091505092915050565b600061140d83836113c4565b905092915050565b6000602082019050919050565b600061142d82611398565b61143781856113a3565b935083602082028501611449856113b4565b8060005b8581101561148557848403895281516114668582611401565b945061147183611415565b925060208a0199505060018101905061144d565b50829750879550505050505092915050565b600060208201905081810360008301526114b18184611422565b905092915050565b600082825260208201905092915050565b7f596f752068617665206e6f74206163636573732e000000000000000000000000600082015250565b60006115006014836114b9565b915061150b826114ca565b602082019050919050565b6000602082019050818103600083015261152f816114f3565b9050919050565b7f4e487b7100000000000000000000000000000000000000000000000000000000600052602260045260246000fd5b6000600282049050600182168061157d57607f821691505b6020821081036115905761158f611536565b5b50919050565b7f4e487b7100000000000000000000000000000000000000000000000000000000600052603260045260246000fd5b7f4e487b7100000000000000000000000000000000000000000000000000000000600052601160045260246000fd5b60006115ff82610ebe565b91507fffffffffffffffffffffffffffffffffffffffffffffffffffffffffffffffff8203611631576116306115c5565b5b600182019050919050565b7f526567697374726174696f6e2074696d696e67206973206f7665726564000000600082015250565b6000611672601d836114b9565b915061167d8261163c565b602082019050919050565b600060208201905081810360008301526116a181611665565b9050919050565b600081905092915050565b60006116be82610ed7565b6116c881856116a8565b93506116d8818560208601610ef3565b80840191505092915050565b60006116f082846116b3565b915081905092915050565b7f43616e64696461746520616c72656164792061646465642e0000000000000000600082015250565b60006117316018836114b9565b915061173c826116fb565b602082019050919050565b6000602082019050818103600083015261176081611724565b9050919050565b60008190508160005260206000209050919050565b60006020601f8301049050919050565b600082821b905092915050565b6000600883026117c97fffffffffffffffffffffffffffffffffffffffffffffffffffffffffffffffff8261178c565b6117d3868361178c565b95508019841693508086168417925050509392505050565b6000819050919050565b600061181061180b61180684610ebe565b6117eb565b610ebe565b9050919050565b6000819050919050565b61182a836117f5565b61183e61183682611817565b848454611799565b825550505050565b600090565b611853611846565b61185e818484611821565b505050565b5b818110156118825761187760008261184b565b600181019050611864565b5050565b601f8211156118c75761189881611767565b6118a18461177c565b810160208510156118b0578190505b6118c46118bc8561177c565b830182611863565b50505b505050565b600082821c905092915050565b60006118ea600019846008026118cc565b1980831691505092915050565b600061190383836118d9565b9150826002028217905092915050565b61191c82610ed7565b67ffffffffffffffff811115611935576119346110fc565b5b61193f8254611565565b61194a828285611886565b600060209050601f83116001811461197d576000841561196b578287015190505b61197585826118f7565b8655506119dd565b601f19841661198b86611767565b60005b828110156119b35784890151825560018201915060208501945060208101905061198e565b868310156119d057848901516119cc601f8916826118d9565b8355505b6001600288020188555050505b505050505050565b7f526567697374726174696f6e20697320676f696e67206f6e2e00000000000000600082015250565b6000611a1b6019836114b9565b9150611a26826119e5565b602082019050919050565b60006020820190508181036000830152611a4a81611a0e565b9050919050565b7f566f74696e6720697320636c6f7365642e000000000000000000000000000000600082015250565b6000611a876011836114b9565b9150611a9282611a51565b602082019050919050565b60006020820190508181036000830152611ab681611a7a565b9050919050565b7f596f75206861766520616c726561647920766f746564206f72206e6f7420726560008201527f676973746572642e000000000000000000000000000000000000000000000000602082015250565b6000611b196028836114b9565b9150611b2482611abd565b604082019050919050565b60006020820190508181036000830152611b4881611b0c565b9050919050565b7f53656c6563742076616c69642043616e6469646174652e000000000000000000600082015250565b6000611b856017836114b9565b9150611b9082611b4f565b602082019050919050565b60006020820190508181036000830152611bb481611b78565b9050919050565b7f566f74657220616c72656164792061646465642e000000000000000000000000600082015250565b6000611bf16014836114b9565b9150611bfc82611bbb565b602082019050919050565b60006020820190508181036000830152611c2081611be4565b905091905056fea2646970667358221220fef3524eb3bb90e8680192fae5e9589f94befd02cc1702523b02e2f9ee7e76ee64736f6c63430008110033",
  "immutableReferences": {},
  "source": "//SPDX-License-Identifier: MIT\r\npragma solidity 0.8.17;\r\n\r\ncontract eVotingSystem{\r\n\r\n    address public Administrator;\r\n    uint256 public Registation_StartingTime;\r\n    uint256 public Registation_EndTime;\r\n    uint256 public Voting_EndTime;\r\n\r\n    constructor(){\r\n        Administrator = msg.sender;\r\n        Registation_StartingTime = block.timestamp;\r\n    }\r\n\r\n    struct Voter{\r\n\r\n        string adharNo;\r\n        uint256 voteddAt;\r\n    \r\n    }\r\n\r\n    struct Candidate{\r\n        uint seqNo;\r\n        string adharNo;\r\n        uint256 voteCount;\r\n        uint256 registeredAt;\r\n\r\n    }\r\n\r\n    mapping(uint256=>Voter)Voters;\r\n    mapping(string=>uint256) public VotedTime;\r\n    mapping(string=>bool)public VotersList;\r\n    uint256 public NumberOfVoters=0;\r\n\r\n   \r\n\r\n    mapping(uint256=>Candidate)Candidates;\r\n    mapping(string=>bool) public CandidatesList;\r\n    uint256 public NumberOfCandidates=0;\r\n\r\n    function SetEndTime (uint256 registation_EndTime, uint256 voting_EndTime )public{\r\n        require(msg.sender==Administrator,\"You have not access.\");\r\n        Registation_EndTime = registation_EndTime;\r\n        Voting_EndTime = voting_EndTime;\r\n    }\r\n    \r\n    function AddVoters(string memory _adharNo)public{\r\n        require(msg.sender==Administrator,\"You have not access.\");\r\n        require(Registation_EndTime>=block.timestamp,\"Registration timing is overed\");\r\n        require(!VotersList[_adharNo],\"Voter already added.\");\r\n        Voter storage voter = Voters[NumberOfVoters];\r\n        // voter.valid_vote = true;\r\n        voter.adharNo = _adharNo;\r\n        // voter.registeredAt = block.timestamp;\r\n        VotersList[_adharNo]=true;\r\n        \r\n        NumberOfVoters++;\r\n    }\r\n\r\n    function getVoters()public view returns(Voter[] memory){\r\n        require(msg.sender==Administrator,\"You have not access.\");\r\n        Voter[] memory allVoters = new Voter[](NumberOfVoters);\r\n        for(uint i =0;i<NumberOfVoters;i++){\r\n            Voter storage person = Voters[i];\r\n            allVoters[i]=person;\r\n        }\r\n        return allVoters;\r\n    }\r\n\r\n    function AddCandidates(string memory _adharNo)public{\r\n        require(msg.sender==Administrator,\"You have not access.\");\r\n        require(Registation_EndTime>=block.timestamp,\"Registration timing is overed\");\r\n        require(!CandidatesList[_adharNo],\"Candidate already added.\");\r\n        Candidate storage candidate = Candidates[NumberOfCandidates];\r\n        candidate.voteCount = 0;\r\n        candidate.adharNo = _adharNo;\r\n        candidate.registeredAt = block.timestamp;\r\n        candidate.seqNo = NumberOfCandidates;\r\n        CandidatesList[_adharNo]=true;\r\n        NumberOfCandidates++;\r\n    }\r\n\r\n    function getCandidates()public view returns(Candidate[] memory){\r\n        require(msg.sender==Administrator,\"You have not access.\");\r\n        Candidate[] memory allCandidates = new Candidate[](NumberOfCandidates);\r\n        for(uint i =0;i<NumberOfCandidates;i++){\r\n            Candidate storage person = Candidates[i];\r\n            allCandidates[i]=person;\r\n        }\r\n        return allCandidates;\r\n    }\r\n\r\n    function giveVote(string memory _adharNo, uint256 _candidateNo)public{\r\n        require(msg.sender==Administrator,\"You have not access.\");\r\n        require(Registation_EndTime<=block.timestamp,\"Registration is going on.\");\r\n        require(Voting_EndTime>=block.timestamp,\"Voting is closed.\");\r\n        require(VotersList[_adharNo],\"You have already voted or not registerd.\");\r\n        require(0<=(_candidateNo) && _candidateNo<NumberOfCandidates,\"Select valid Candidate.\");\r\n        Candidates[_candidateNo].voteCount++;\r\n        VotedTime[_adharNo]=block.timestamp;\r\n        VotersList[_adharNo]=false;\r\n    }\r\n}",
  "sourcePath": "C:\\Users\\DELL\\Downloads\\Local-Disk\\Personal Dev\\Tech\\My-Projects\\College Project\\Blockchain\\API\\Final_Contract\\contracts\\eVotingSystem.sol",
  "compiler": {
    "name": "solc",
    "version": "0.8.17+commit.8df45f5f.Emscripten.clang"
  },
  "schemaVersion": "3.4.11",
  "updatedAt": "2023-05-31T11:51:19.918Z",
  "networkType": "ethereum",
  "devdoc": {
    "kind": "dev",
    "methods": {},
    "version": 1
  },
  "userdoc": {
    "kind": "user",
    "methods": {},
    "version": 1
  }
}